:100000000C9462000C948A000C948A000C948A0070
:100010000C948A000C948A000C948A000C948A0038
:100020000C948A000C948A000C948A000C948A0028
:100030000C948A000C948A000C948A000C948A0018
:100040000C940C040C948A000C94DA030C94B40302
:100050000C948A000C948A000C948A000C948A00F8
:100060000C948A000C948A000000000025002800EF
:100070002B0000000008000201000003040700003C
:1000800000000000000000000000240027002A00FB
:1000900000000000230026002900040404040404D6
:1000A0000404020202020202030303030303010227
:1000B00004081020408001020408102001020408F6
:1000C0001020560411241FBECFEFD8E0DEBFCDBFF5
:1000D00011E0A0E0B1E0E2E7F0E102C005900D928E
:1000E000A631B107D9F721E0A6E1B1E001C01D9228
:1000F000A03DB207E1F710E0C2E6D0E004C02197CE
:10010000FE010E943108C136D107C9F70E94A3043D
:100110000C9437080C940000CF92DF92EF92FF927C
:10012000CF93DF93B091C401A0E08111AB2F8091F8
:10013000C50190E0880F991FAC0140575F4FC090F8
:10014000CA01D090CB01E090CC01F090CD0130E01D
:1001500020E0FA01C591D491E881B90190E080E0F6
:10016000EB23EA130AC02F5F3F4F6C157D058E0508
:100170009F0578F36FEF7FEFCB01DF91CF91FF9079
:10018000EF90DF90CF900895AF92BF92CF92DF9221
:10019000EF92FF920F931F93CF93DF936C017B013C
:1001A0008B01040F151FEB015E01AE18BF08C017CD
:1001B000D10759F06991D601ED91FC910190F08140
:1001C000E02DC6010995892B79F7C501DF91CF9103
:1001D0001F910F91FF90EF90DF90CF90BF90AF9065
:1001E0000895FC01538D448D252F30E0842F90E03D
:1001F000821B930B541710F0CF9608950197089522
:10020000FC01918D828D981761F0A28DAE0FBF2FEA
:10021000B11D5D968C91928D9F5F9F73928F90E040
:1002200008958FEF9FEF0895FC01918D828D9817AF
:1002300031F0828DE80FF11D858D90E008958FEFEC
:100240009FEF0895FC01918D228D892F90E0805CB5
:100250009F4F821B91098F739927089580E291E047
:100260000E94220121E0892B09F420E0822F0895C9
:1002700080E090E0892B29F00E942E0181110C94DE
:1002800000000895FC01A48DA80FB92FB11DA35A39
:10029000BF4F2C91848D90E001968F739927848FA6
:1002A000A689B7892C93A089B1898C9183708064C9
:1002B0008C93938D848D981306C00288F389E02D6A
:1002C00080818F7D80830895EF92FF920F931F931B
:1002D000CF93DF93EC0181E0888F9B8D8C8D9813F9
:1002E0001AC0E889F989808185FF15C09FB7F89405
:1002F000EE89FF896083E889F98980818370806451
:1003000080839FBF81E090E0DF91CF911F910F919B
:10031000FF90EF900895F62E0B8D10E00F5F1F4FAA
:100320000F731127E02E8C8D8E110CC00FB607FCB9
:10033000FACFE889F989808185FFF5CFCE010E9447
:100340004201F1CFEB8DEC0FFD2FF11DE35AFF4F72
:10035000F0829FB7F8940B8FEA89FB8980818062D5
:10036000CFCFCF93DF93EC01888D8823B9F0AA8992
:10037000BB89E889F9898C9185FD03C0808186FD60
:100380000DC00FB607FCF7CF8C9185FFF2CF8081AF
:1003900085FFEDCFCE010E944201E9CFDF91CF91E1
:1003A000089590E0FC01EE58FF4F2491FC01E255C6
:1003B000FF4F3491FC01E656FF4FE491EE23C9F064
:1003C000222339F0233001F1A8F4213019F1223031
:1003D00029F1F0E0EE0FFF1FE859FF4FA591B4910E
:1003E0008FB7F894EC91611126C030953E233C9371
:1003F0008FBF08952730A9F02830C9F0243049F77D
:10040000809180008F7D03C0809180008F778093E2
:100410008000DFCF84B58F7784BDDBCF84B58F7D3F
:10042000FBCF8091B0008F778093B000D2CF8091C6
:10043000B0008F7DF9CF3E2BDACFCF93DF9390E0E2
:10044000FC01E255FF4F249186569F4FFC01849199
:100450008823D1F090E0880F991FFC01EA57FF4FE5
:10046000A591B491FC01E859FF4FC591D491623038
:1004700071F49FB7F8943C91822F809583238C93DD
:10048000E8812E2B28839FBFDF91CF9108958FB7EE
:10049000F894EC912E2B2C938FBFF6CF3FB7F894A6
:1004A0008091170190911801A0911901B0911A0142
:1004B00026B5A89B05C02F3F19F00196A11DB11DBF
:1004C0003FBFBA2FA92F982F8827BC01CD01620FFB
:1004D000711D811D911D42E0660F771F881F991FB6
:1004E0004A95D1F708958F929F92AF92BF92CF9283
:1004F000DF92EF92FF924B015C010E944E026B0172
:100500007C010E944E026C197D098E099F09683E8C
:10051000734081059105A8F321E0821A9108A10892
:10052000B10888EEC80E83E0D81EE11CF11C8114CE
:100530009104A104B10429F7FF90EF90DF90CF90D0
:10054000BF90AF909F908F900895CF92DF92EF92DF
:10055000FF920F931F93CF93DF93CDB7DEB7C054B5
:10056000D1400FB6F894DEBF0FBECDBF2FB7F894C1
:1005700080911C0190911D01A0911E01B0911F015D
:100580002FBF4091C6015091C7016091C801709181
:10059000C9018C019D01041B150B260B370BB901FA
:1005A000A801403D57406105710590F48091CE014E
:1005B000C05CDE4F0FB6F894DEBF0FBECDBFDF913B
:1005C000CF911F910F91FF90EF90DF90CF90089502
:1005D0008093C6019093C701A093C801B093C9014D
:1005E0001092C1011092C0011092BF011092BE0181
:1005F0001092BD0162E08091C2010E941D0261E083
:1006000070E080E090E00E94730261E08091C2019E
:100610000E941D0260E08091C2010E94D101809180
:10062000C3018551823020F58BE291E10197F1F70A
:1006300062E08091C2010E941D028091CF0190E092
:100640008230910538F0880F991F880F991F059700
:100650000197F1F7F89480E00E948C006F3F7F4F84
:100660008F4F9F4F61F41092CE01789480E0A0CF1D
:1006700064E170E080E090E00E947302D9CF81E0F5
:100680000E948C006F3F7F4F8F4F9F4F61F38E0111
:100690000F5F1F4F6E018FEBC81A8EEFD80A7801DB
:1006A00080E00E948C00F7016083718382839383D2
:1006B00081E00E948C00F7016483758386839783B1
:1006C000F8E0EF0EF11CEC14FD0451F7789430E0E3
:1006D00020E0F801C080D180E280F3804481558120
:1006E00066817781FFEFCF16DF06EF06FF0631F058
:1006F0004F3F8FEF58076807780719F41092CE0123
:10070000B5CFF90183E0F595E7958A95E1F7E354D4
:10071000FE4F8081880FC416D506E606F70610F155
:1007200080832F5F3F4F085F1F4F2832310589F6C6
:100730004091C1012091BD018091BE01280F332756
:10074000331F8091BF01280F311D8091C001820F9E
:10075000932F911D99274817190681F681E0809300
:10076000CE0126CF8160DCCF1F920F920FB60F9281
:1007700011242F933F934F935F936F937F938F93A6
:100780009F93AF93BF93EF93FF9380E291E00E941A
:100790004201FF91EF91BF91AF919F918F917F9116
:1007A0006F915F914F913F912F910F900FBE0F90DE
:1007B0001F9018951F920F920FB60F9211242F932E
:1007C0008F939F93EF93FF93E0913001F09131016C
:1007D0008081E0913601F091370182FD1BC090814C
:1007E000809139018F5F8F7320913A01821741F018
:1007F000E0913901F0E0E05EFE4F958F8093390182
:10080000FF91EF919F918F912F910F900FBE0F90BD
:100810001F9018958081F4CF1F920F920FB60F9200
:1008200011242F933F938F939F93AF93BF93809106
:100830001C0190911D01A0911E01B0911F013091EA
:10084000160123E0230F2D3758F50196A11DB11D88
:100850002093160180931C0190931D01A0931E010B
:10086000B0931F018091170190911801A091190177
:10087000B0911A010196A11DB11D809317019093AB
:100880001801A0931901B0931A01BF91AF919F91E4
:100890008F913F912F910F900FBE0F901F90189541
:1008A00026E8230F0296A11DB11DD2CFE0E2F1E0B0
:1008B0001382128288EE93E0A0E0B0E084839583F7
:1008C000A683B78384E091E09183808385EC90E0F8
:1008D0009587848784EC90E09787868780EC90E00A
:1008E000918B808B81EC90E0938B828B82EC90E0FB
:1008F000958B848B86EC90E0978B868B118E128E75
:10090000138E148EADEBB1E087E015968C9315979E
:100910008BE016968C931697E5EBF0E0E491179632
:10092000EC931797E1EAF0E0E4911896EC931897AE
:1009300040E85EE360E070E01D964D935D936D933B
:100940007C9350970895CF93DF93CDB7DEB7A197EF
:100950000FB6F894DEBF0FBECDBF789484B5826029
:1009600084BD84B5816084BD85B5826085BD85B553
:10097000816085BD80916E00816080936E001092D1
:10098000810080918100826080938100809181004C
:1009900081608093810080918000816080938000DD
:1009A0008091B10084608093B1008091B00081603B
:1009B0008093B00080917A00846080937A00809167
:1009C0007A00826080937A0080917A0081608093BF
:1009D0007A0080917A00806880937A001092C1003A
:1009E0001FB7F89480911B01811127C0E4EAF0E061
:1009F0008491E8EBF0E09491E82FF0E0EE0FFF1F18
:100A0000EA57FF4FA591B491EC91E92321F461E0FD
:100A10008AE00E94D10161E08AE00E941D028CB54B
:100A200080618CBD8CB580648CBD61E08DE00E94DE
:100A30001D0261E08BE00E941D0280911B018F5F0F
:100A400080931B011FBF61E08AE00E941D02E091BC
:100A50003001F091310182E08083E0912C01F0912E
:100A60002D011082E0912E01F0912F018FEC8083F7
:100A700010923801E0913401F091350186E08083D5
:100A8000E0913201F0913301808180618083E091B7
:100A90003201F0913301808188608083E0913201DE
:100AA000F0913301808180688083E0913201F09180
:100AB000330180818F7D808362E08091C2010E943A
:100AC0001D022FB7F89480911C0190911D01A091F7
:100AD0001E01B0911F012FBF805D9740A109B10990
:100AE0008093C6019093C701A093C801B093C90138
:100AF00087E38093CF019AE0C92ED12CE12CF12C11
:100B000020E0222E20E0322E60E08AE00E94D10117
:100B100064E670E080E090E00E9473020E94A5020B
:100B2000882341F08091C3018C3009F4A4C038F4CB
:100B30008B30F1F060E070E080EC9FE741C08551C0
:100B40008230C0F71091BF01612F70E0762F6627C9
:100B500066277F778091C001682B90E080E00E943B
:100B600014072DEC3CEC4CEC5DE30E94A2079FC007
:100B70006091BF0170E090E080E00E9414072B01BB
:100B80003C011091C00117FF0AC0AC019B0160E05D
:100B900070E080E89FEB0E9471062B013C011F7002
:100BA000612F70E090E080E00E9416072DEC3CEC95
:100BB0004CEC5DE30E94A207A30192010E94720621
:100BC0000E94DE062B014B01770FAA08BB08B7FE77
:100BD00072C06DE280E291E00E9464012227332717
:100BE000A901281939094A095B0919A28E010F5D6B
:100BF0001F4FCA01B901A70196010E940F08605D4D
:100C0000F80162938F01211531054105510589F7DE
:100C10000115110561F001900020E9F73197AF014E
:100C2000401B510BB80180E291E00E94C40042E0F9
:100C300050E062E171E080E291E00E94C4004EBCAD
:100C400000000DB407FEFDCF8EB564EF71E080E0CB
:100C500090E00E94730261E08AE00E94D1012114B9
:100C6000310409F451CF0E942E01882309F44CCF9E
:100C70000E94000049CF1091BF01612F70E090E009
:100C800080E00E9414072B013C016091C0016F704D
:100C900070E090E080E00E9416072DEC3CEC4CECFC
:100CA0005DE30E94A207A30192010E94720617FF52
:100CB00087CF905885CFA501940119A28E010F5DB1
:100CC0001F4FCA01B901A70196010E940F08605D7C
:100CD000F80162938F01211531054105510589F70E
:100CE00097CF5058BB27AA270E9489060C94680703
:100CF0000E945A0738F00E94610720F039F49F3FA4
:100D000019F426F40C9457070EF4E095E7FB0C94C5
:100D10005107E92F0E94790758F3BA176207730742
:100D20008407950720F079F4A6F50C949B070EF440
:100D3000E0950B2EBA2FA02D0B01B90190010C01EB
:100D4000CA01A0011124FF27591B99F0593F50F403
:100D5000503E68F11A16F040A22F232F342F44275B
:100D6000585FF3CF469537952795A795F040539553
:100D7000C9F77EF41F16BA0B620B730B840BBAF023
:100D80009150A1F0FF0FBB1F661F771F881FC2F78E
:100D90000EC0BA0F621F731F841F48F487957795A2
:100DA0006795B795F7959E3F08F0B0CF9395880F5C
:100DB00008F09927EE0F9795879508950E94E5060C
:100DC0006894B1110C949C0708950E94810788F0E3
:100DD0009F5798F0B92F9927B751B0F0E1F0660FFF
:100DE000771F881F991F1AF0BA95C9F714C0B13040
:100DF00091F00E949B07B1E008950C949B07672F28
:100E0000782F8827B85F39F0B93FCCF3869577956E
:100E10006795B395D9F73EF4909580957095619557
:100E20007F4F8F4F9F4F0895E89409C097FB3EF482
:100E300090958095709561957F4F8F4F9F4F992327
:100E4000A9F0F92F96E9BB279395F69587957795A5
:100E50006795B795F111F8CFFAF4BB0F11F460FF65
:100E60001BC06F5F7F4F8F4F9F4F16C0882311F0BD
:100E700096E911C0772321F09EE8872F762F05C0D1
:100E8000662371F096E8862F70E060E02AF09A956C
:100E9000660F771F881FDAF7880F9695879597F961
:100EA000089597F99F6780E870E060E008959FEFEC
:100EB00080EC089500240A941616170618060906F1
:100EC000089500240A9412161306140605060895C0
:100ED000092E0394000C11F4882352F0BB0F40F448
:100EE000BF2B11F460FF04C06F5F7F4F8F4F9F4F88
:100EF000089557FD9058440F551F59F05F3F71F00A
:100F00004795880F97FB991F61F09F3F79F0879570
:100F10000895121613061406551FF2CF4695F1DFF9
:100F200008C0161617061806991FF1CF8695710589
:100F3000610508940895E894BB2766277727CB01BD
:100F400097F908950E94B5070C9468070E945A0704
:100F500038F00E94610720F0952311F00C9451079E
:100F60000C94570711240C949C070E94790770F386
:100F7000959FC1F3950F50E0551F629FF001729F3E
:100F8000BB27F00DB11D639FAA27F00DB11DAA1F4D
:100F9000649F6627B00DA11D661F829F2227B00D9A
:100FA000A11D621F739FB00DA11D621F839FA00D25
:100FB000611D221F749F3327A00D611D231F849F75
:100FC000600D211D822F762F6A2F11249F575040CC
:100FD0009AF0F1F088234AF0EE0FFF1FBB1F661F47
:100FE000771F881F91505040A9F79E3F510580F010
:100FF0000C9451070C949C075F3FE4F3983ED4F3A4
:10100000869577956795B795F795E7959F5FC1F7B3
:10101000FE2B880F911D9695879597F90895A1E26B
:101020001A2EAA1BBB1BFD010DC0AA1FBB1FEE1F62
:10103000FF1FA217B307E407F50720F0A21BB30BAD
:10104000E40BF50B661F771F881F991F1A9469F729
:1010500060957095809590959B01AC01BD01CF0185
:101060000895EE0FFF1F0590F491E02D0994F89478
:02107000FFCFB0
:10107200000000006401C400F100B101220100017E
:0610820014010D0A00003C
:00000001FF
