:100000000C9453000C947B000C947B000C947B00AC
:100010000C947B000C947B000C947B000C947B0074
:100020000C947B000C947B000C947B000C947B0064
:100030000C947B000C947B000C947B000C947B0054
:100040000C9407020C9451020C94D5010C94AF014E
:100050000C947B000C947B000C947B000C947B0034
:100060000C947B000C947B0000000000250028000D
:100070002B0000000000240027002A0004040404D0
:100080000404040402020202020203030303030342
:10009000010204081020408001020408102001021F
:1000A000040810206E0311241FBECFEFD8E0DEBF7E
:1000B000CDBF11E0A0E0B1E0EAE8F7E002C00590B2
:1000C0000D92A631B107D9F721E0A6E1B1E001C058
:1000D0001D92AE3BB207E1F710E0C3E5D0E004C0EB
:1000E0002197FE010E94BD03C235D107C9F70E94C6
:1000F00063020C94C3030C940000AF92BF92CF92A2
:10010000DF92EF92FF920F931F93CF93DF936C01D7
:100110007B018B01040F151FEB015E01AE18BF08B8
:10012000C017D10759F06991D601ED91FC9101906A
:10013000F081E02DC6010995892B79F7C501DF9182
:10014000CF911F910F91FF90EF90DF90CF90BF90D4
:10015000AF900895FC01538D448D252F30E0842FFE
:1001600090E0821B930B541710F0CF9608950197DF
:100170000895FC01918D828D981761F0A28DAE0FCC
:10018000BF2FB11D5D968C91928D9F5F9F73928F53
:1001900090E008958FEF9FEF0895FC01918D828D7F
:1001A000981731F0828DE80FF11D858D90E008954C
:1001B0008FEF9FEF0895FC01918D228D892F90E0A4
:1001C000805C9F4F821B91098F739927089580E26D
:1001D00091E00E94DB0021E0892B09F420E0822FCE
:1001E000089580E090E0892B29F00E94E7008111BA
:1001F0000C9400000895FC01A48DA80FB92FB11D27
:10020000A35ABF4F2C91848D90E001968F7399274C
:10021000848FA689B7892C93A089B1898C9183702A
:1002200080648C93938D848D981306C00288F38923
:10023000E02D80818F7D80830895EF92FF920F9350
:100240001F93CF93DF93EC0181E0888F9B8D8C8D82
:1002500098131AC0E889F989808185FF15C09FB776
:10026000F894EE89FF896083E889F9898081837039
:10027000806480839FBF81E090E0DF91CF911F91E8
:100280000F91FF90EF900895F62E0B8D10E00F5F09
:100290001F4F0F731127E02E8C8D8E110CC00FB6DF
:1002A00007FCFACFE889F989808185FFF5CFCE0177
:1002B0000E94FB00F1CFEB8DEC0FFD2FF11DE35AF7
:1002C000FF4FF0829FB7F8940B8FEA89FB898081FA
:1002D0008062CFCFCF93DF93EC01888D8823B9F074
:1002E000AA89BB89E889F9898C9185FD03C0808141
:1002F00086FD0DC00FB607FCF7CF8C9185FFF2CFBE
:10030000808185FFEDCFCE010E94FB00E9CFDF9118
:10031000CF9108953FB7F89480911B0190911C01F3
:10032000A0911D01B0911E0126B5A89B05C02F3FCD
:1003300019F00196A11DB11D3FBFBA2FA92F982F0B
:100340008827BC01CD01620F711D811D911D42E006
:10035000660F771F881F991F4A95D1F708951F923E
:100360000F920FB60F9211242F933F934F935F93E9
:100370006F937F938F939F93AF93BF93EF93FF936D
:1003800080E291E00E94FB00FF91EF91BF91AF915D
:100390009F918F917F916F915F914F913F912F919D
:1003A0000F900FBE0F901F9018951F920F920FB6CF
:1003B0000F9211242F938F939F93EF93FF93E091CC
:1003C0003001F09131018081E0913601F0913701E7
:1003D00082FD1BC09081809139018F5F8F732091C6
:1003E0003A01821741F0E0913901F0E0E05EFE4F02
:1003F000958F80933901FF91EF919F918F912F916C
:100400000F900FBE0F901F9018958081F4CF1F9210
:100410000F920FB60F9211242F933F938F939F93B8
:10042000AF93BF938091170190911801A09119018A
:10043000B0911A013091160123E0230F2D3758F5A2
:100440000196A11DB11D2093160180931701909371
:100450001801A0931901B0931A0180911B0190918A
:100460001C01A0911D01B0911E010196A11DB11D9D
:1004700080931B0190931C01A0931D01B0931E015A
:10048000BF91AF919F918F913F912F910F900FBE90
:100490000F901F90189526E8230F0296A11DB11DFD
:1004A000D2CF1F920F920FB60F9211248F938EB559
:1004B0008093BD0181E080931F018F910F900FBE4B
:1004C0000F901F901895CF93DF93CDB7DEB7A1970C
:1004D0000FB6F894DEBF0FBECDBF789484B58260AE
:1004E00084BD84B5816084BD85B5826085BD85B5D8
:1004F000816085BD80916E00816080936E00109256
:1005000081008091810082608093810080918100D0
:100510008160809381008091800081608093800061
:100520008091B10084608093B1008091B0008160BF
:100530008093B00080917A00846080937A008091EB
:100540007A00826080937A0080917A008160809343
:100550007A0080917A00806880937A001092C100BE
:10056000E0913001F091310182E08083E0912C0133
:10057000F0912D011082E0912E01F0912F018FEC6E
:10058000808310923801E0913401F091350186E0CA
:100590008083E0913201F09133018081806180831A
:1005A000E0913201F0913301808188608083E09195
:1005B0003201F0913301808180688083E0913201C3
:1005C000F091330180818F7D8083ECE9F0E024910C
:1005D000E8E8F0E08491882399F090E0880F991F73
:1005E000FC01EE58FF4FA591B491FC01E859FF4F73
:1005F000859194918FB7F894EC91E22BEC938FBF97
:1006000080EC8CBD78949AE0892E912CA12CB12C91
:1006100026E4322E2091BD0130E050E040E019A2E6
:100620008E010F5D1F4FCA01B901A50194010E94FF
:100630009B03605DF80162938F012115310541052F
:10064000510589F7309761F001900020E9F7319763
:10065000AF01401B510BB80180E291E00E947D0088
:1006600042E050E062E171E080E291E00E947D00B2
:1006700080911F0181113EBC0E948A016B017C01A7
:1006800084EF482E55245394612C712C0E948A01CA
:100690006C197D098E099F09683E7340810591059B
:1006A000A8F3F1E04F1A51086108710828EEC20E54
:1006B00023E0D21EE11CF11C4114510461047104B9
:1006C00029F780E090E0892B09F4A4CF0E94E7008D
:1006D000882309F49FCF0E9400009CCFE0E2F1E064
:1006E0001382128288EE93E0A0E0B0E084839583C9
:1006F000A683B78384E091E09183808385EC90E0CA
:100700009587848784EC90E09787868780EC90E0DB
:10071000918B808B81EC90E0938B828B82EC90E0CC
:10072000958B848B86EC90E0978B868B118E128E46
:10073000138E148E0895A1E21A2EAA1BBB1BFD0175
:100740000DC0AA1FBB1FEE1FFF1FA217B307E407B0
:10075000F50720F0A21BB30BE40BF50B661F771F08
:10076000881F991F1A9469F76095709580959095E8
:100770009B01AC01BD01CF010895EE0FFF1F059055
:0A078000F491E02D0994F894FFCFE6
:10078A00000000001D017D00AA006A01DB00B9001B
:06079A00CD000D0A000075
:00000001FF
